:020000040800F2
:10000000005000200117000805030008070300083E
:10001000090300080B0300080D030008000000009E
:100020000000000000000000000000000F030008B6
:100030001103000800000000130300081503000866
:100040004917000849170008491700084917000810
:100050004917000849170008491700084917000800
:1000600049170008491700084917000849170008F0
:1000700049170008491700084917000849170008E0
:1000800049170008491700084917000849170008D0
:1000900049170008491700084917000849170008C0
:1000A00049170008491700084917000849170008B0
:1000B0001D0300082D030008491700084917000810
:1000C0004917000849170008491700084917000890
:1000D0004917000849170008491700084917000880
:1000E00049170008491700084917000800000000D8
:1000F0000000000000000000000000000000000000
:0C01000000000000000000005FF808F1A3
:10010C000348044B834202D0034B03B1184770479A
:10011C000C0000200C000020000000000548064BDD
:10012C001B1AD90F01EBA301491002D0034B03B1E9
:10013C00184770470C0000200C0000200000000045
:10014C0010B5064C237843B9FFF7DAFF044B13B113
:10015C000448AFF300800123237010BD0C00002075
:10016C0000000000A417000808B5054B1BB1054999
:10017C000548AFF30080BDE80840FFF7CFBF00BFD4
:10018C000000000010000020A4170008114B83424F
:10019C0000D07047104B1B88104A12685363104AEA
:1001AC0012785AB940F69E72934203D80A330A4A1F
:1001BC00138070470A4B01221A707047B3F5FA6F1F
:1001CC0003D30A3B044A13807047054B00221A7074
:1001DC00DFE700BF30000020000000207800002086
:1001EC002800002072B6FEE710B590B006AC2822AD
:1001FC000021204601F0A3FA0023019302930393FC
:10020C0004930593012206924FF4803307930A92CC
:10021C0002220D920E934FF4E0130F93204600F040
:10022C0009F978B90F23019302210291002303935A
:10023C004FF480620492059301A800F02DFB18B9CD
:10024C0010B010BDFFF7CEFFFFF7CCFF08B500F0E4
:10025C00B7F8FFF7C9FF00F011F800F0F3FD00F05C
:10026C005BFD0021034801F0A3F9034800F0EAFE0E
:10027C00FEE700BF780000203000002070B588B089
:10028C0004AD00240494059406940794184B9A69C1
:10029C0042F010029A619A6902F010020192019ADE
:1002AC009A6942F020029A619A6902F02002029245
:1002BC00029A9A6942F004029A619B6903F0040362
:1002CC000393039B0B4E22464FF40051304600F033
:1002DC00A3FC4FF4005304930123059306940223CB
:1002EC0007932946304600F08DFB08B070BD00BF67
:1002FC000010024000100140FEE7FEE7FEE7FEE7BB
:10030C00FEE770477047704708B500F06BF808BD02
:10031C0008B5024800F0CDFE08BD00BF78000020F3
:10032C0008B5024800F0C5FE08BD00BF3000002033
:10033C0082B00E4B9A6942F001029A619A6902F0FE
:10034C0001020092009ADA6942F08052DA61DB69AC
:10035C0003F080530193019B054A536823F0E0633B
:10036C0043F00073536002B0704700BF00100240AE
:10037C000000014010B504460E4B1A784FF47A7306
:10038C00B3FBF2F30C4A1068B0FBF3F000F0AEFCD8
:10039C0068B90F2C01D901200AE0002221464FF048
:1003AC00FF3000F085FC054B1C60002000E00120B4
:1003BC0010BD00BF02000020080000200400002037
:1003CC0008B5074A136843F010031360032000F0CC
:1003DC005DFC0F20FFF7CEFFFFF7AAFF002008BD42
:1003EC0000200240034A1168034B1B780B44136036
:1003FC00704700BF2C00002002000020014B186841
:10040C00704700BF2C00002082B0084B1B68084AC4
:10041C00A2FB03235B0A00FB03F3019300BF019BC8
:10042C005A1E0192002BF9D102B07047080000202F
:10043C00D34D6210002800F0F18170B582B00446F3
:10044C00036813F0010F2CD0994B5B6803F00C037D
:10045C00042B1DD0964B5B6803F00C03082B12D0B9
:10046C006368B3F5803F41D0002B55D103F1804335
:10047C0003F504331A6822F480321A601A6822F4E5
:10048C0080221A6037E08A4B5B6813F4803FE7D018
:10049C00874B1B6813F4003F03D06368002B00F0FC
:1004AC00BF81236813F0020F75D0814B5B6813F08A
:1004BC000C0F5FD07E4B5B6803F00C03082B54D001
:1004CC002369002B00F08A807A4B01221A60FFF717
:1004DC0095FF0546764B1B6813F0020F75D1FFF79D
:1004EC008DFF401B0228F5D903209EE1704A13684A
:1004FC0043F480331360636843B3FFF77FFF054613
:10050C006B4B1B6813F4003FCBD1FFF777FF401BFD
:10051C006428F5D9032088E1B3F5A02F09D0644BEA
:10052C001A6822F480321A601A6822F480221A6047
:10053C00E1E703F18043A3F53C331A6842F48022CF
:10054C001A601A6842F480321A60D4E7FFF756FF3B
:10055C000546574B1B6813F4003FA2D0FFF74EFF24
:10056C00401B6428F5D903205FE1514B5B6813F401
:10057C00803FA5D14E4B1B6813F0020F03D02369AB
:10058C00012B40F04F814A4A136823F0F80361694C
:10059C0043EAC1031360236813F0080F33D0A36937
:1005AC00002B5CD0434B0122C3F88024FFF726FFBD
:1005BC0005463F4B5B6A13F0020F21D1FFF71EFF7C
:1005CC00401B0228F5D903202FE1394A136823F088
:1005DC00F803616943EAC1031360DCE7354B002281
:1005EC001A60FFF70BFF0546314B1B6813F0020F27
:1005FC00D1D0FFF703FF401B0228F5D9032014E1EB
:10060C000120FFF701FF236813F0040F00F0968020
:10061C00274BDB6913F0805F34D1254BDA6942F04C
:10062C008052DA61DB6903F080530193019B012551
:10063C00214B1B6813F4807F26D0E368012B3DD03F
:10064C00002B53D103F1804303F504331A6A22F0D3
:10065C0001021A621A6A22F004021A6233E0154B84
:10066C000022C3F88024FFF7C9FE0546104B5B6AD5
:10067C0013F0020FC7D0FFF7C1FE401B0228F5D9BB
:10068C000320D2E00025D3E70B4A136843F48073B0
:10069C001360FFF7B3FE0646074B1B6813F4807F0D
:1006AC00CBD1FFF7ABFE801B6428F5D90320BCE04F
:1006BC000010024000004242007000405F4A136A82
:1006CC0043F001031362E36833B3FFF797FE06466A
:1006DC005A4B1B6A13F0020F2FD1FFF78FFE801BB2
:1006EC0041F288339842F3D903209EE0052B09D0C0
:1006FC00524B1A6A22F001021A621A6A22F00402A0
:10070C001A62E0E74D4B1A6A42F004021A621A6A46
:10071C0042F001021A62D6E7FFF770FE0646474B1D
:10072C001B6A13F0020F08D0FFF768FE801B41F222
:10073C0088339842F3D9032077E0E5B9E369002BBD
:10074C0072D03E4A526802F00C02082A56D0022B94
:10075C0017D03B4B00221A66FFF750FE0446374B6E
:10076C001B6813F0007F47D0FFF748FE001B0228E0
:10077C00F5D9032059E0314AD36923F08053D36172
:10078C00DCE72F4B00221A66FFF738FE05462B4B91
:10079C001B6813F0007F06D0FFF730FE401B0228C9
:1007AC00F5D9032041E0236AB3F5803F1AD02349E1
:1007BC004B6823F47413226A606A024313434B6040
:1007CC001F4B01221A66FFF719FE04461B4B1B68D0
:1007DC0013F0007F0ED1FFF711FE001B0228F5D994
:1007EC00032022E0154A536823F40033A1680B431D
:1007FC005360DCE7002018E0002016E0012B16D037
:10080C000E4B5B6803F48031226A914211D103F4E0
:10081C007013626A93420ED1002006E001207047EB
:10082C00012002E0012000E0002002B070BD012098
:10083C00FBE70120F9E70120F7E700BF00100240B9
:10084C00000042420F4B5B6803F00C02082A01D0F7
:10085C000D487047C3F383420C49885C13F4803F06
:10086C000BD0084B5B68C3F34043094AD35C064A80
:10087C0002FB00F0B0FBF3F07047064B03FB00F0FB
:10088C00704700BF0010024000127A00C017000829
:10089C00BC17000800093D00002800F0A08070B5CE
:1008AC000D460446524B1B6803F007038B420BD2D8
:1008BC004F4A136823F007030B431360136803F0CC
:1008CC0007038B4240F08D80236813F0020F17D082
:1008DC0013F0040F04D0474A536843F4E0635360A9
:1008EC00236813F0080F04D0424A536843F4605352
:1008FC005360404A536823F0F003A1680B435360E4
:10090C00236813F0010F31D06368012B20D0022B28
:10091C0025D0384A126812F0020F64D035494A6863
:10092C0022F0030213434B60FFF768FD0646314B80
:10093C005B6803F00C036268B3EB820F16D0FFF711
:10094C005DFD801B41F288339842F0D9032045E0CD
:10095C00284A126812F4003FE0D101203EE0254AFB
:10096C00126812F0007FD9D1012037E0204B1B68B0
:10097C0003F00703AB420AD91D4A136823F007039F
:10098C002B431360136803F00703AB422DD123688C
:10099C0013F0040F06D0174A536823F4E063E168A0
:1009AC000B435360236813F0080F07D0114A5368A8
:1009BC0023F46053216943EAC1035360FFF742FFFC
:1009CC000C4B5B68C3F303130B4AD35CD8400B4B43
:1009DC0018600B4B1868FFF7CDFC002070BD012090
:1009EC0070470120FAE70120F8E70120F6E700BF85
:1009FC000020024000100240D01700080800002020
:100A0C000400002070B582B00024A4469EE07C4D0A
:100A1C00AB4214D00CD8A5F58015AB420FD005F520
:100A2C007025AB420BD0A5F58015AB421FD106E06B
:100A3C00744DAB4203D005F58035AB4217D18B68B2
:100A4C00A3B1012B0DD04261082410E0CC680EE05C
:100A5C00CC6804340BE0CC68083408E0CC680C3467
:100A6C0005E00261082402E0002400E00424BEF149
:100A7C00FF0F37D806464FEA8C0233680F25954096
:100A8C0023EA050304FA02F2134333604B6813F0B4
:100A9C00805F59D05C4B9A6942F001029A619B6964
:100AAC0003F001030193019B4FEA9C02951C574BE9
:100ABC0053F825600CF00305AD000F23AB4026EA7C
:100ACC000306534B984214D003F58063984279D0B7
:100ADC0003F58063984277D003F58063984206D083
:100AEC00042307E0061DACF108029200C5E70323BE
:100AFC0000E00023AB4033430232444D45F8223032
:100B0C004B6813F4801F61D0424A936843EA0E038A
:100B1C0093604B6813F4001F5ED03E4AD36843EADF
:100B2C000E03D3604B6813F4003F5BD0394A536813
:100B3C0043EA0E0353604B6813F4803F58D0354A98
:100B4C00136843EA0E0313600CF1010C0B6833FAC3
:100B5C000CF253D0012202FA0CF203EA020E32EA32
:100B6C000303F1D14B68122B3FF651AF122B3FF61A
:100B7C007EAF01A555F823F04B0A0008590A00086E
:100B8C00630A0008750A00087B0A00087B0A000843
:100B9C007B0A00087B0A00087B0A00087B0A000815
:100BAC007B0A00087B0A00087B0A00087B0A000805
:100BBC007B0A00087B0A00087B0A00085D0A000813
:100BCC00690A0008012395E7022393E7114A936809
:100BDC0023EA0E0393609CE70E4AD36823EA0E03C4
:100BEC00D3609FE70B4A536823EA0E035360A2E7D6
:100BFC00084A136823EA0E031360A5E702B070BD20
:100C0C0000002210000031100010024000000140D2
:100C1C0000080140000401400AB101617047090459
:100C2C0001617047002808DB0901C9B200F160407E
:100C3C0000F5614080F80013704700F00F000901C7
:100C4C00C9B2014B1954704714ED00E000B500F027
:100C5C000700C0F1070CBCF1040F28BF4FF0040CC7
:100C6C00031D062B0FD9C31E4FF0FF3E0EFA0CF0DE
:100C7C0021EA000199400EFA03FE22EA0E0241EA33
:100C8C0002005DF804FB0023EEE70000074AD3687E
:100C9C0023F4E0631B041B0C000200F4E06003432C
:100CAC0043F0BF6343F40033D360704700ED00E0C2
:100CBC0010B50446054BD868C0F30220FFF7C6FFF9
:100CCC0001462046FFF7AEFF10BD00BF00ED00E06F
:100CDC00002807DB00F01F02400901239340024A61
:100CEC0042F82030704700BF00E100E00138B0F15D
:100CFC00807F0BD24FF0E0235861054AF02182F837
:100D0C0023100020986107221A6170470120704758
:100D1C0000ED00E07047000000B587B0002302939F
:100D2C00039304930593009301931548154A0260AD
:100D3C0047224260836042F20F72C260036183619A
:100D4C0000F0A8FA90B94FF48053029302A90C4812
:100D5C0000F0A0FB68B90023009301936946084892
:100D6C0000F090FC40B907B05DF804FBFFF73AFACD
:100D7C00E9E7FFF737FAEEE7FFF734FAF3E700BFDE
:100D8C00300000200004004000B583B00368B3F1CC
:100D9C00804F05D0164A934216D003B05DF804FB81
:100DAC0003F50433DA6942F00102DA61DB6903F01E
:100DBC0001030093009B002211461C20FFF778FFD3
:100DCC001C20FFF785FFE8E70A4BDA6942F00202C4
:100DDC00DA61DB6903F002030193019B00221146E7
:100DEC001D20FFF765FF1D20FFF772FFD5E700BF41
:100DFC00000400400010024000B587B000230293AD
:100E0C000393049305930368B3F1804F02D007B0AA
:100E1C005DF804FB03F504339A6942F004029A610D
:100E2C009B6903F004030193019B012302930223AA
:100E3C000393059302A90248FFF7E4FDE7E700BF1F
:100E4C000008014000B58FB000230A930B930C935C
:100E5C000D930893099301930293039304930593C1
:100E6C000693079321484FF0804202602322426090
:100E7C00836044F61F62C2600361836100F00AFA6A
:100E8C0020BB4FF480530A930AA9184800F002FBC8
:100E9C00F8B9164800F02AFAF0B900230893099320
:100EAC0008A9124800F0EEFBC8B960230193002298
:100EBC0002920392059201A90C4800F071FA88B9CC
:100ECC000A48FFF799FF0FB05DF804FBFFF78AF9AA
:100EDC00D7E7FFF787F9DCE7FFF784F9DDE7FFF7E2
:100EEC0081F9E2E7FFF77EF9EAE700BF780000201E
:100EFC0030B4026A036A23F0010303624568836914
:100F0C0023F073030C681C4322F002028B6813431A
:100F1C000B4A904206D0456084614A684263036282
:100F2C0030BC704723F00803CA681A4322F004034C
:100F3C0025F440754A692A438D691543EBE700BFD8
:100F4C00002C014030B4036A026A22F480720262FF
:100F5C004468C26922F073020D68154323F40073D0
:100F6C008A6843EA02230D4A904206D04460C56168
:100F7C004A68C263036230BC704723F40063CA68DA
:100F8C0043EA022323F4806324F440544A6944EA7C
:100F9C0002148A6944EA0214E8E700BF002C0140FD
:100FAC0030B4036A026A22F4805202624468C26955
:100FBC0022F4E6420D6842EA052223F400538D68C0
:100FCC0043EA0533074DA84206D04460C2614A6823
:100FDC000264036230BC704724F480444D6944EAD7
:100FEC008514F2E7002C014010B4036A046A24F063
:100FFC0001040462846924F0F00C4CEA021223F020
:10100C000A030B438261036210BC704710B4036A7D
:10101C00046A24F010040462846924F4704C4CEAD1
:10102C00023223F0A00343EA01138261036210BC75
:10103C007047836823F070030B4343F0070383600E
:10104C007047000090F83D30012B27D1022380F827
:10105C003D300268D36843F00103D3600368114A42
:10106C00934210D0B3F1804F0DD0A2F5943293423D
:10107C0009D002F58062934205D01A6842F0010251
:10108C001A60002070479A6802F00702062A07D0FF
:10109C001A6842F001021A60002070470120704764
:1010AC0000207047002C0140704770477047704714
:1010BC00704770B504460368DE681D6915F0020FB1
:1010CC0010D016F0020F0DD06FF002021A6101233E
:1010DC00037703689B6913F0030F5ED0FFF7E6FFFD
:1010EC000023237715F0040F12D016F0040F0FD045
:1010FC0023686FF004021A610223237723689B692B
:10110C0013F4407F4FD02046FFF7D0FF0023237706
:10111C0015F0080F12D016F0080F0FD023686FF0DF
:10112C0008021A61042323772368DB6913F0030F89
:10113C0040D02046FFF7BAFF0023237715F0100F9D
:10114C0012D016F0100F0FD023686FF010021A6136
:10115C00082323772368DB6913F4407F31D02046C2
:10116C00FFF7A4FF0023237715F0010F02D016F030
:10117C00010F2DD115F0800F02D016F0800F2FD15A
:10118C0015F0400F02D016F0400F31D115F0200FA2
:10119C0002D016F0200F33D170BDFFF786FF20462A
:1011AC00FFF785FF9CE72046FFF77FFF2046FFF700
:1011BC007EFFABE72046FFF778FF2046FFF777FF6F
:1011CC00BAE72046FFF771FF2046FFF770FFC9E72B
:1011DC0023686FF001021A612046FEF7D7FFC9E7BA
:1011EC0023686FF080021A61204600F082FAC7E78C
:1011FC0023686FF040021A612046FFF759FFC5E7DC
:10120C0023686FF020021A61204600F071FAC3E7E0
:10121C0003681F4A90420AD0B0F1804F07D0A2F564
:10122C009432904203D002F58062904203D123F0B5
:10123C0070034A681343164A90420AD0B0F1804FAB
:10124C0007D0A2F59432904203D002F5806290420E
:10125C0003D123F44073CA68134323F080034A6913
:10126C00134303608B68C3620B688362084B98421C
:10127C000AD001234361036913F0010F03D0036902
:10128C0023F00103036170470B690363F1E700BFAF
:10129C00002C014040B310B5044690F83D30F3B13A
:1012AC00022384F83D30214651F8040BFFF7B0FFC0
:1012BC00012384F8463084F83E3084F83F3084F8BB
:1012CC00403084F8413084F8423084F8433084F85C
:1012DC00443084F8453084F83D30002010BD80F84F
:1012EC003C30FFF751FDDBE70120704740B310B5F0
:1012FC00044690F83D30F3B1022384F83D3021468A
:10130C0051F8040BFFF784FF012384F8463084F86E
:10131C003E3084F83F3084F8403084F8413084F813
:10132C00423084F8433084F8443084F8453084F8F3
:10133C003D30002010BD80F83C30FFF7B5FEDBE7F8
:10134C000120704730B4036A026A22F01002026274
:10135C004468826922F4E6420D6842EA052223F0D1
:10136C0020038D6843EA05130C4DA84206D0446057
:10137C0082614A688263036230BC704723F0800349
:10138C00CD6843EA051323F0400324F440644D690F
:10139C0044EA85048D6944EA8504E8E7002C0140A1
:1013AC0038B590F83C30012B66D004460D4601232D
:1013BC0080F83C300C2A5AD8DFE802F0075959590A
:1013CC001B5959593059595944000068FFF790FD81
:1013DC002268936943F0080393612268936923F0B0
:1013EC00040393612268936929690B43936100207C
:1013FC003EE00068FFF7A6FF2268936943F40063A0
:10140C0093612268936923F48063936122689369E2
:10141C00296943EA01239361002029E00068FFF762
:10142C0091FD2268D36943F00803D3612268D36924
:10143C0023F00403D3612268D36929690B43D36178
:10144C00002015E00068FFF7ABFD2268D36943F478
:10145C000063D3612268D36923F48063D36122686B
:10146C00D369296943EA0123D361002000E00120FC
:10147C00002384F83C3038BD0220FCE710B48468AB
:10148C0024F47F4C42EA03220A4342EA0C028260B3
:10149C0010BC704790F83C30012B78D010B5044646
:1014AC00012380F83C30022380F83D3002689368B9
:1014BC0023F47F4323F0770393600B68602B4CD0AD
:1014CC0023D8402B54D011D8202B03D00AD80BB1E1
:1014DC00102B05D119462068FFF7ABFD002028E042
:1014EC00012026E0302BF5D0012022E0502B0AD130
:1014FC00CA6849680068FFF777FD50212068FFF73C
:10150C0098FD002015E0012013E0B3F5805F3AD080
:10151C00B3F5005F14D0702B37D1CB684A6889685B
:10152C000068FFF7ABFF2268936843F07703936082
:10153C000020012384F83D30002384F83C3010BD9A
:10154C00CB684A6889680068FFF798FF226893683F
:10155C0043F4804393600020EBE7CA684968006855
:10156C00FFF754FD60212068FFF763FD0020E0E7E2
:10157C00CA6849680068FFF737FD40212068FFF70B
:10158C0058FD0020D5E70020D3E70120D1E7022049
:10159C00704701F01F014FF0010C0CFA01FC036ABB
:1015AC0023EA0C030362036A8A4013430362704705
:1015BC0010B50446084649BB94F83E30013B18BFB1
:1015CC000123002B58D1002836D1022384F83E3059
:1015DC00012201462068FFF7DCFF2368284A93426A
:1015EC003AD02368264A93423BD0B3F1804F38D08F
:1015FC00A2F59432934234D002F58062934230D0FB
:10160C001A6842F001021A60002036E0042907D063
:10161C0008290BD094F84130013B18BF0123D0E7C7
:10162C0094F83F30013B18BF0123CAE794F84030CF
:10163C00013B18BF0123C4E7042805D0082807D0B4
:10164C00022384F84130C3E7022384F83F30BFE71C
:10165C00022384F84030BBE75A6C42F400425A64CF
:10166C00BFE79A6802F00702062A07D01A6842F010
:10167C0001021A60002000E0012010BD0020FCE7F0
:10168C00002C014090F83C20012A2CD010B40346C9
:10169C00012280F83C20022280F83D20026850682C
:1016AC00946820F0700C086840EA0C0050601A68CE
:1016BC000E4882420AD0B2F1804F07D0A0F5943088
:1016CC00824203D000F58060824204D124F0800471
:1016DC00496821439160012283F83D20002083F862
:1016EC003C0010BC70470220704700BF002C01402A
:1016FC0070477047FFF70EFB0B480C490C4A002350
:10170C0002E0D458C4500433C4188C42F9D3094AAB
:10171C00094C002301E013600432A242FBD300F019
:10172C0017F8FEF793FD7047000000200C00002016
:10173C00E81700080C000020C0000020FEE703465C
:10174C000244934200D1704703F8011BF9E70000F3
:10175C0070B500260C4D0D4B5B1B9C10A64209D19D
:10176C00002600F019F80A4D0A4B5B1B9C10A64290
:10177C0005D170BD55F8043B98470136EEE755F896
:10178C00043B98470136F2E7E0170008E017000821
:10179C00E0170008E4170008F8B500BFF8BC08BC57
:1017AC009E467047F8B500BFF8BC08BC9E46704713
:1017BC000102000002030405060708090A0B0C0DC0
:1017CC000E0F1010000000000000000001020304C6
:0417DC0006070809EB
:0417E0007501000887
:0417E4004D010008AB
:0C17E800CF0701001000000000127A0082
:0400000508001701D7
:00000001FF
